:020000040800F2
:1000000050100020010100086D0700085306000889
:100010006907000891020008271500080000000089
:100020000000000000000000000000006D0E00084D
:100030009502000800000000150D000805100008DA
:100040001701000817010008170100081701000830
:100050001701000817010008170100081701000820
:100060001701000817010008170100081701000810
:100070001701000817010008170100081701000800
:1000800017010008170100081701000817010008F0
:10009000170100081701000817010008990200085D
:1000A00017010008170100081701000817010008D0
:1000B000170100081701000869100008170100085F
:1000C00017010008170100081701000817010008B0
:1000D00017010008F9110008811200081701000833
:1000E000170100081701000817010008DFF80CD0FD
:1000F00000F058F8004800474D1900085010002043
:1001000005480047FEE7FEE7FEE7FEE7FEE7FEE7FD
:10011000FEE7FEE7FEE7FEE7ED00000830B5054626
:100120002A460B4612F8010B13F8014B08B1A04206
:10013000F8D01CB1002802D06D1CF1E7284630BD74
:100140002DE9F05F0546002092469B46884606460C
:10015000814640241BE0284641464746224600F09F
:1001600042F853465A46C01A914110D311461846D8
:10017000224600F029F82D1A67EB01084F46224667
:100180000120002100F020F817EB00094E41201E4D
:10019000A4F10104DFDC484631462A464346BDE867
:1001A000F09F0000064C074D06E0E06840F00103B8
:1001B00094E8070098471034AC42F6D3FFF79AFF53
:1001C0008C250008AC250008202A04DB203A00FA20
:1001D00002F1002070479140C2F1200320FA03F39E
:1001E000194390407047202A04DB203A21FA02F09C
:1001F0000021704721FA02F3D040C2F12002914061
:1002000008431946704770B58C1810F8015B15F05B
:10021000070301D110F8013B2A1106D110F8012B78
:1002200003E010F8016B01F8016B5B1EF9D12B079D
:1002300005D40023521E0DD401F8013BFAE710F853
:10024000013BCB1A921C03E013F8015B01F8015B40
:10025000521EF9D5A142D8D3002070BD08B50121A6
:10026000082000F079FD8020ADF8000010208DF806
:10027000030003208DF802006946044800F05AF993
:100280008021024800F0E1F908BD0000000C0140A7
:1002900000BFFEE77047000010B503A001F046F96B
:1002A000402000F009F810BD0D0A20A1A36F6BA13A
:1002B000A3200D0A200000000149086070470000DB
:1002C00014040140014621293ED2DFE801F0111358
:1002D0001517191B1D1F212325273D3D3D3D292BAA
:1002E0003D3D3D2D3D3D2F313335373D3D393B00C3
:1002F00017A02BE017A029E01AA027E01EA025E0F8
:1003000022A023E029A021E030A01FE036A01DE0BC
:1003100043A01BE045A019E048A017E04BA000BF98
:1003200053A013E056A011E059A00FE061A00DE02A
:1003300064A00BE066A009E069A007E06DA005E0FD
:1003400071A003E073A001E075A000BF00BF70477B
:100350004F4B0000CAFDBEDDB0FCBDD3CAD5B4ED25
:10036000CEF30000B4ABB8D0C6F7C9CFC3BBD3D06F
:10037000CAD6D6B800000000C2BCC8EBD6B8CEC6FC
:10038000CDBCCFF1CAA7B0DC00000000D6B8CEC605
:10039000CDBCCFF1CCABB8C9A1A2CCABB5ADB6F852
:1003A000C9FAB2BBB3C9CCD8D5F70000D6B8CEC60F
:1003B000CDBCCFF1CCABCAAAA1A2CCABBAFDB6F8EA
:1003C000C9FAB2BBB3C9CCD8D5F70000D6B8CEC6EF
:1003D000CDBCCFF1CCABC2D2B6F8C9FAB2BBB3C96F
:1003E000CCD8D5F700000000D6B8CEC6CDBCCFF132
:1003F000D5FDB3A3A3ACB5ABCCD8D5F7B5E3CCABA7
:10040000C9D9A3A8BBF2C3E6BBFDCCABD0A1A3A9BD
:10041000B6F8C9FAB2BBB3C9CCD8D5F70000000012
:10042000D6B8CEC6B2BBC6A5C5E40000C3BBCBD10F
:10043000CBF7B5BDD6B8CEC600000000CCD8D5F7F6
:10044000BACFB2A2CAA7B0DC00000000B7C3CECAC0
:10045000D6B8CEC6BFE2CAB1B5D8D6B7D0F2BAC503
:10046000B3ACB3F6D6B8CEC6BFE2B7B6CEA70000DF
:10047000C9BEB3FDC4A3B0E5CAA7B0DC000000004C
:10048000C7E5BFD5D6B8CEC6BFE2CAA7B0DC00006C
:10049000BBBAB3E5C7F8C4DAC3BBD3D0D3D0D0A7B7
:1004A000D4ADCABCCDBCB6F8C9FAB2BBB3C9CDBCD9
:1004B000CFF10000B6C1D0B420464C41534820B320
:1004C000F6B4ED00CEB4B6A8D2E5B4EDCEF300009C
:1004D000CEDED0A7BCC4B4E6C6F7BAC500000000A3
:1004E000BCC4B4E6C6F7C9E8B6A8C4DAC8DDB4ED42
:1004F000CEF30000BCC7CAC2B1BED2B3C2EBD6B8FD
:10050000B6A8B4EDCEF30000D6B8CEC6BFE2C2FAAC
:1005100000000000B5D8D6B7B4EDCEF3000000005F
:10052000C4A3BFE9B7B5BBD8C8B7C8CFC2EBD3D057
:10053000CEF300002DE9F041024600250026002000
:1005400000230024002791F803C00CF00F0591F858
:1005500003C00CF0100CBCF1000F03D091F802C0E6
:100560004CEA050591F800C0BCF1000F31D01468C9
:1005700000202BE04FF0010C0CFA00F3B1F800C0A2
:100580000CEA03069E4220D183004FF00F0C0CFAB8
:1005900003F7BC4305FA03FC4CEA040491F803C0DA
:1005A000BCF1280F06D14FF0010C0CFA00FCC2F888
:1005B00014C00AE091F803C0BCF1480F05D14FF018
:1005C000010C0CFA00FCC2F810C0401C0828D1D362
:1005D0001460B1F800C0BCF1FF0F34DD5468002096
:1005E0002EE000F1080C4FF0010808FA0CF3B1F806
:1005F00000C00CEA03069E4221D183004FF00F0C8D
:100600000CFA03F7BC4305FA03FC4CEA040491F826
:1006100003C0BCF1280F05D100F1080C08FA0CF852
:10062000C2F8148091F803C0BCF1480F07D100F163
:10063000080C4FF0010808FA0CF8C2F81080401CB2
:100640000828CED35460BDE8F08141617047016154
:10065000704700BFFEE7000010B54FF48041064828
:10066000FFF7F5FF4FF47A7001F018F94FF480416D
:100670000148FFF7EAFF10BD000C01407CB50546BC
:10068000EF208DF8000001208DF801001A48006865
:10069000000E8DF8020018480068000C8DF8030069
:1006A00015480088000A8DF80400134800788DF87A
:1006B000050007208DF8060000208DF807000F497F
:1006C000088012E0012001F0E9F80C48008800F4ED
:1006D000004050B100200949088069460848FFF7EA
:1006E0001DFD04460CB120467CBD681E80B2051E6F
:1006F000E8D100BFF8E7000020000020240000201F
:100700006808002008B50121082000F025FB4FF4FF
:100710008040ADF8000010208DF8030003208DF814
:10072000020069460848FFF705FF4FF4804106487C
:10073000FFF78DFF4FF47A7001F0B0F84FF480416D
:100740000148FFF782FF08BD000C014000BF0549CA
:10075000098801F040010029F9D00249091D0880EB
:10076000704700000044004000BFFEE770470000F3
:1007700070B5002100230F22C47804B3154C2468FF
:1007800004F4E064C4F5E064210AC1F10403CA4042
:10079000447804FA03F184781440214309010E4C93
:1007A0000678A155047804F01F050124AC400578B3
:1007B0006D11AD0005F1E025C5F8004109E00478B0
:1007C00004F01F050124AC40044D0678761145F86D
:1007D000264070BD0CED00E000E400E080E100E0A8
:1007E00002490143024A1160704700000000FA0507
:1007F0000CED00E070B5002419E004F1B001C8B2BE
:10080000002100F067F90021084600F063F900219B
:10081000102000F05FF9002505E00121002000F024
:1008200059F9681CC5B2802DF7DB601CC4B2082CD6
:10083000E3DB70BD08B50121082000F08DFA4FF40C
:100840003040ADF8000010208DF8030003208DF833
:10085000020069465248FFF76DFE4FF430415048A0
:10086000FFF7F5FE0121082000F076FA4FF4506002
:10087000ADF8000010208DF8030003208DF8020071
:1008800069464748FFF756FE4FF450614448FFF76A
:10089000DEFE4FF480614248FFF7D9FE642000F08D
:1008A000FDFF4FF480613E48FFF7CFFEC82000F007
:1008B000F5FF4FF480613A48FFF7C9FE0021AE20F2
:1008C00000F008F90021202000F004F90021102098
:1008D00000F000F90021B02000F0FCF80021C82051
:1008E00000F0F8F80021084600F0F4F8002110208C
:1008F00000F0F0F80021402000F0ECF80021812009
:1009000000F0E8F80021FF2000F0E4F80021A12029
:1009100000F0E0F80021A62000F0DCF80021A8207B
:1009200000F0D8F800213F2000F0D4F80021A420E6
:1009300000F0D0F80021D32000F0CCF800210846C8
:1009400000F0C8F80021D52000F0C4F80021F02004
:1009500000F0C0F80021D92000F0BCF800212220CE
:1009600000F0B8F80021DA2000F0B4F800211220DD
:1009700000F0B0F80021DB2000F0ACF800212020CE
:1009800000F0A8F800218D2000F0A4F80021142028
:1009900000F0A0F80021AF2000F09CF808BD000096
:1009A000000C014070B504460D4605F1B001C8B217
:1009B000002100F08FF8102141EA1410002100F00E
:1009C00089F804F00F0141F00100002100F082F8E5
:1009D00070BD00002DE9F04180460E461746002408
:1009E0007D0131464046FFF7DDFF00BF07E00E49BD
:1009F000485D012100F06EF86D1C601CC4B2102C23
:100A0000F5DB701CC1B24046FFF7CCFF002407E0C5
:100A10000549485D012100F05DF86D1C601CC4B201
:100A2000102CF5DBBDE8F081260000202DE9F04117
:100A300007460E46904600250024A8F12000C5B2C6
:100A40007F2F02DD0027B01CC6B231463846FFF7C3
:100A5000A9FF002408E004EB05110F4A505C0121B6
:100A600000F038F8601CC4B2082CF4DB701CC1B272
:100A70003846FFF797FF002409E004EB0511083121
:100A8000054A505C012100F025F8601CC4B2082C16
:100A9000F3DBBDE8F08100009C1F00082DE9F04168
:100AA00004460F46154600260EE0AA5D394620464C
:100AB000FFF7BCFF04F10800C4B2782C02DD00246B
:100AC000B81CC7B2701CC6B2A85D0028EDD1BDE845
:100AD000F081000070B504460E462EB14FF400615F
:100AE0001C48FFF7B4FD04E04FF400611948FFF71C
:100AF000ACFD4FF480511748FFF7A7FD00251BE020
:100B00004FF400511348FFF7A0FD04F0800028B116
:100B10004FF400410F48FFF79AFD04E04FF4004105
:100B20000C48FFF792FD4FF400510A48FFF78FFD84
:100B30006006040E681CC5B2082DE1DB4FF480513D
:100B40000448FFF784FD4FF400610248FFF77FFD82
:100B500070BD0000000C01402DE9F041054600F099
:100B6000B0F900F085F9012000F0A5F9042000F0AB
:100B7000B0F9022000F0B7F92846FFF7E7FDEF1DB6
:100B8000384600F08FF94FF4FA60FFF777FD06461C
:100B90000EB1747A00E0FF242046BDE8F08170B504
:100BA00000F08FF900F064F9012000F084F90320CF
:100BB00000F08FF9012000F096F90526304600F08C
:100BC00071F94FF4FA60FFF759FD05460DB16C7AE3
:100BD00000E0FF24204670BD10B5044600F071F916
:100BE00000F046F90120FFF7B1FD0020FFF7AEFD50
:100BF0000020FFF7ABFDC82000F050FE144800882D
:100C000000F4004008B313480078EF281AD11148C7
:100C10004078012816D10F488079072812D10D4855
:100C2000807800060B49C97800EB01400949097931
:100C300000EB01200749497908442060002004495D
:100C4000088010BD0020024908800120F9E700005B
:100C500024000020680800202DE9F04781460D4659
:100C600016461F4600F02DF900F002F9012000F0B1
:100C700022F9082000F02DF91B2000F034F9484635
:100C8000FFF764FD2812FFF761FDE8B2FFF75EFD94
:100C90003012FFF75BFDF0B2FFF758FD09F12400B9
:100CA00000EB2520E9B2084400EB2620F1B200EB6E
:100CB000010A504600F0F6F84FF4FA60FFF7DEFC48
:100CC000044664B194F80980E07AA17A00EB01202F
:100CD0003880607B217B00EB0120788001E04FF0C1
:100CE000FF084046BDE8F08708B50121042000F068
:100CF00033F84020ADF8000028208DF803000320D1
:100D00008DF8020069460248FFF714FC08BD000098
:100D1000000801407047000029B1064AD269024329
:100D2000044BDA6104E0034AD2698243014BDA6181
:100D3000704700000010024029B1064A12690243C0
:100D4000044B1A6104E0034A12698243014B1A61A1
:100D5000704700000010024029B1064A9269024320
:100D6000044B9A6104E0034A92698243014B9A6101
:100D7000704700000010024029B1064AD2680243C1
:100D8000044BDA6004E0034AD2688243014BDA6024
:100D9000704700000010024030B5002100220024FE
:100DA00000232D4D6D6805F00C0121B1042905D0FB
:100DB000082923D105E0294D056022E0274D056073
:100DC0001FE0254D6D6805F47012234D6D6805F424
:100DD0008034022505EB92421CB9214D5543056034
:100DE0000BE01D4D6D6805F400351DB11C4D5543DC
:100DF000056002E0194D5543056002E0174D05609E
:100E000000BF00BF144D6D6805F0F0010909154DD4
:100E10006B5C0568DD4045600F4D6D6805F4E06171
:100E2000090A104D6B5C4568DD4085600A4D6D68B0
:100E300005F46051C90A0B4D6B5C4568DD40C56027
:100E4000054D6D6805F44041890B074D6B5CC56825
:100E5000B5FBF3F5056130BD0010024000127A00C9
:100E600000093D0046080020560800207047000099
:100E700010B50B490968080EFFF768FC08480068C0
:100E8000C0F30740FFF762FC05480088C0F3072065
:100E9000FFF75CFC02490878FFF758FC10BD000022
:100EA0002000002010B504462012FFF74FFCE0B2EE
:100EB000FFF74CFC10BD10B504462046FFF746FC7A
:100EC00010BD10B5EF20FFF741FC0120FFF73EFCFD
:100ED00010BD10B50446C4F30720FFF737FCE0B29D
:100EE000FFF734FC10BD10B504462046FFF72EFC7A
:100EF00010BD10B500F002F810BD00000CB50020C8
:100F0000019000903348006840F480303149086017
:100F100000BF3048006800F4003000900198401C89
:100F20000190009818B90198B0F5A06FF1D1294847
:100F3000006800F4003010B10120009001E00020B2
:100F400000900098012843D12348006840F0100029
:100F5000214908600846006820F003000860084640
:100F6000006840F0020008601A484068194948606B
:100F70000846406848600846406840F48060486021
:100F80000846406820F47C1048600846406840F4F9
:100F9000E81048600846006840F08070086000BFB4
:100FA0000C48006800F000700028F9D0094840683B
:100FB00020F00300074948600846406840F00200FE
:100FC000486000BF0348406800F00C000828F9D1D1
:100FD0000CBD00000010024000200240042808D18F
:100FE0004FF0E021096941F004014FF0E022116166
:100FF00007E04FF0E021096921F004014FF0E02201
:10100000116170477047000010B51348006840F048
:1010100001001149086008464068104908400E491F
:101020004860084600680E4908400B4908600846B9
:10103000006820F4802008600846406820F4FE0024
:1010400048604FF41F008860FFF753FF4FF00060C7
:101050000449086010BD0000001002400000FFF8C5
:10106000FFFFF6FE08ED00E010B50121094800F091
:1010700054F868B10848008840F4004006490880E8
:101080000121044800F03AF80021024800F039F844
:1010900010BD000000080040240000207FB5054678
:1010A0000C4601210420FFF737FEADF80450ADF8DF
:1010B00000400020ADF80600ADF8020069460E4879
:1010C00000F048F8012211460B4800F037F80121E2
:1010D000094800F016F81E208DF80C0000208DF84D
:1010E0000D0002208DF80E0001208DF80F0003A8DE
:1010F000FFF73EFB7FBD000000080040CA430282AC
:10110000704721B1028842F00102028004E00288A7
:101110004FF6FE731A400280704730B50246002039
:1011200000230024158A05EA0103958905EA0104D4
:1011300013B10CB1012000E0002030BD1AB1838949
:101140000B43838102E083898B43838170478184D1
:1011500070470000002202881D4B98420ED01D4BA4
:1011600098420BD0B0F1804F08D01B4B984205D06D
:101170001A4B984202D01A4B984204D14FF68F7303
:101180001A404B881A43174B984207D0164B984287
:1011900004D04FF6FF431A40CB881A4302808B8855
:1011A00083850B8803850A4B98420BD0094B9842E4
:1011B00008D00E4B984205D00D4B984202D00D4BF3
:1011C000984201D10B7A0386012383827047000085
:1011D000002C0140003401400004004000080040A1
:1011E000000C00400010004000140040004001408E
:1011F000004401400048014010B540F225511D480F
:1012000000F0D0F810B31B4800F088F9C4B21A48B7
:10121000008800F40040C8B91748008800F48040F6
:1012200060B10A2C03D000201349088020E0124846
:10123000008840F400401049088019E00D2C06D1C8
:101240000D48008840F480400B49088010E00A48AF
:101250000088C0F30D0009490C5407480088401C61
:101260000549088008460088C72801DD002008805D
:1012700010BD00000038014064080020880B0020E9
:1012800010B540F22551164800F08CF800B3144810
:1012900000F044F9C4B21348008800F40040B8B923
:1012A00010480088B0F5C87F13DA00210E48FFF718
:1012B0004EFF0C48008818B901210B48FFF721FFA9
:1012C000084801880088401C064A1080074844549A
:1012D00005E00448008840F400400249088010BD41
:1012E000004400402400002000080040680800205E
:1012F00021B1828942F40052828104E082894DF654
:10130000FF731A408281704710B50446204884421A
:1013100009D101218803FFF72FFD00214FF4804000
:10132000FFF72AFD32E01B48844209D1012148041D
:10133000FFF702FD00214FF40030FFF7FDFC25E030
:101340001548844209D101218804FFF7F5FC0021EA
:101350004FF48020FFF7F0FC18E01048844209D1D8
:101360000121C804FFF7E8FC00214FF40020FFF73B
:10137000E3FC0BE00A48844208D101210805FFF78D
:10138000DBFC00214FF48010FFF7D6FC10BD0000FD
:10139000003801400044004000480040004C00403C
:1013A0000050004070B502460024002300250020B4
:1013B00040F66A16B14200D100BFC1F3421501F0F8
:1013C0001F03012606FA03F3012D02D1968933404B
:1013D00006E0022D02D1168A334001E0968A33409E
:1013E0000C12012606FA04F41688344013B10CB12D
:1013F000012000E0002070BDF0B503460024002667
:101400000025002040F66A17B94200D100BF1846F7
:10141000C1F3421401F01F06012707FA06F5012C5B
:1014200001D10C3004E0022C01D1103000E0143066
:101430001AB107682F43076002E00768AF430760EF
:10144000F0BD00002DE9F04786B005460E460024A9
:10145000A24600BFA1460027B08900B100BF2F46B9
:101460002C8A4CF6FF700440F08804432C82AC892F
:101470004EF6F3100440B08831890843718908435F
:101480000443AC81AC8A4FF6FF400440B08904436A
:10149000AC8201A8FFF780FC1F48874202D1DDF82B
:1014A00010A001E0DDF80CA0A88900F4004040B1D4
:1014B0000AEBCA0000EB0A1031684900B0FBF1F8F2
:1014C00007E00AEBCA0000EB0A1031688900B0FBA4
:1014D000F1F86420B8FBF0F004012009642101FB5D
:1014E0001089A88900F4004040B1322000EBC90007
:1014F000B0FBF1F000F00700044308E0322000EBFD
:1015000009106421B0FBF1F000F00F0004432C81BE
:1015100006B0BDE8F0870000003801400146888829
:10152000C0F30800704700BFFEE700000FB4054B92
:1015300010B503A9044A029800F018F810BC5DF831
:1015400014FB0000311900086008002002E008C800
:10155000121F08C1002AFAD170477047002001E02D
:1015600001C1121F002AFBD1704700002DE9FF4F77
:101570008DB09B460F460446002606E025280BD07A
:101580005A460F999047641C761C20780028F5D1A4
:1015900011B03046BDE8F08F0025A84601229849D9
:1015A00000E0054314F8013F203B02FA03F0084233
:1015B000F7D120782E2817D114F8010F45F0040533
:1015C0002A280ED06FF02F022078A0F130010929CF
:1015D0000AD808EB880102EB410100EB0108641C0A
:1015E000F2E757F8048B641C20786C280DD004DCDB
:1015F0004C2812D06A2811D104E074280DD07A2822
:101600000CD10AE045F4001507E0617845F4801537
:10161000814202D1641C05F58015641C2278692A78
:1016200045D008DC002AB3D0582A69D0632A10D0EC
:10163000642A08D13BE0702A67D0732A13D0752A38
:101640005CD0782A5CD010465A460F999047761C99
:10165000D3E017F8040B8DF8000000208DF801008E
:10166000E946012003E057F8049B4FF0FF3069077B
:101670004FF0000501D40AE06D1C45450DDA8542A6
:10168000FADB19F805100029F6D106E06D1C854239
:10169000FCDB19F805100029F8D12E4404E019F8F4
:1016A000010B5A460F9990476D1EF8D2A5E00A200B
:1016B0000021CDE90801C5F3025002280DD001CF69
:1016C000C117031E71F100030DDA4FF0000CD0EBCF
:1016D0000C006CEB01012D2308E0FF1D27F007072C
:1016E000F7E80201EDE72B0504D52B238DF8283010
:1016F00001233BE0EB0739D02023F7E70A2000E085
:1017000010200021CDE9080107E01020002145F05C
:101710000405CDE908014FF00808C5F3025002287E
:101720000FD001CF00214FF0000A2B071FD5702AE0
:101730000DD0DDE908C38CF0100C5CEA030C0CD072
:1017400015E0FF1D27F00707F7E80201EBE740224D
:101750008DF828204FF0010A0BE050EA010306D073
:1017600030238DF828308DF8292002239A46582AF4
:1017700004D024A20DF120090B9209E026A2F9E77A
:10178000DDE90823FEF7DCFC0B9B9B5C09F8013DBF
:1017900050EA0102F4D1ADEB09002030089068074F
:1017A00001D44FF001080899884502DDA8EB01003B
:1017B00000E000208046002506E00AA85A46405D69
:1017C0000F9990476D1C761C5545F6DB04E03020E0
:1017D0005A460F999047761CB8F10001A8F101080C
:1017E000F5DC05E019F8010B5A460F999047761C75
:1017F0000899481E08900029F4DC641CC5E6000026
:1018000009280100303132333435363738396162D6
:10181000636465660000000030313233343536379A
:1018200038394142434445460000000030B5044683
:101830000B4600210BE0605C5D5CA84201D00020FB
:1018400030BD585C0A2801D10020F9E7491C9142BB
:10185000F1D30120F4E7000010B56FF00400FFF7AA
:10186000BDFB0A4800680A49B0FBF1F0094908705D
:101870000846007800EB4001C1EBC0104FF6FF7145
:1018800001EAC0000449088010BD00000C000020DF
:1018900000127A005A0800205C0800200146114A14
:1018A00012884A434FF0E0235A6100229A611A4697
:1018B000126942F001021A6100BF4FF0E022106984
:1018C00000F001021AB100F48032002AF5D04FF086
:1018D000E022126922F001024FF0E0231A61002297
:1018E0009A6170475C08002010B50EE04FF4C87094
:1018F000FFF7D4FFFEF77EFF07A203210020FFF7CA
:10190000CDF84FF44870FFF7C9FF0848FFF764F9B6
:101910000028EBD110BD000066696E676572206912
:101920006E6974206572726F7200000020000020E2
:1019300000BF054A128802F04002002AF9D0C2B264
:10194000014B1B1D1A80704700380140FFF75CFBFC
:10195000FFF782FFFEF76EFFFEF7D4FEFEF77EFC78
:101960004FF4A060FEF73CFF4FF4165000F04CF926
:101970004FF4E13000F098F9FFF7B6FFFFF7B4F944
:1019800000F0A0F88FE000F0BFF847480078012889
:101990006FD14648008806285FD2DFE800F05E037A
:1019A00014273A4D0F2409E0382101EB0411C8B285
:1019B00022460521FFF70EF8601CC4B2122CF3DB9F
:1019C000FEF74AFE4FE012240BE004EB840101EB2A
:1019D000C4013831C8B222460521FEF7FBFF601C66
:1019E000C4B2152CF1DBFEF737FE3CE015240BE00A
:1019F00004EB440101EBC4013831C8B22246052191
:101A0000FEF7E8FF601CC4B2182CF1DBFEF724FEE1
:101A100029E018240BE004EB8401382202EB410199
:101A2000C8B222460521FEF7D5FF601CC4B21B2CAC
:101A3000F1DBFEF711FE16E01B2409E004EBC40104
:101A40003831C8B222460521FEF7C4FF601CC4B27B
:101A50001E2CF3DBFEF700FE05E015A2032100209B
:101A6000FFF71CF800BF00BF00200F49087000F00E
:101A700029F81148008800F40040A0B10E48008801
:101A8000C0F30D0500200D494855062D08D12A4602
:101A90000B490A48FFF7CAFE012801D1FEF7DCFD19
:101AA0000020054908806EE707000020080000209C
:101AB0006572726F7200000064080020880B0020BD
:101AC0000000002010B5FEF7B5FE0A20FFF7E6FE85
:101AD000FEF790FE0A20FFF7E1FE05A20021232079
:101AE000FEF7DCFF04A203210B20FEF7D7FF10BD99
:101AF00077656C636F6D6500696E70757420752015
:101B000066696E676572000038B5FFF748F80446ED
:101B1000002C4AD10120FFF71FF80446002C31D1D8
:101B20006B464FF4967200210120FFF795F80446AA
:101B30008CB91EA0FFF7FAFC012022490870BDF8FD
:101B40000220BDF8001020A0FFF7F0FCBDF8000057
:101B50002449088029E024A201210020FEF79EFFED
:101B60000120254908604FF49670FFF797FE00208A
:101B70002249C1F89C014FF49670FFF78FFEFFF7E2
:101B8000A1FF12E018A206210020FEF787FF4FF404
:101B90007A70FFF783FE2046FEF794FB0546294640
:101BA00017A0FFF7C3FCFFF78DFF38BD0D0A2020FB
:101BB000D6B8CEC6C6A5C5E4B3C9B9A60909200DD5
:101BC0000A000000070000204D617463682049444A
:101BD0003A256420204D617463682073636F7265D9
:101BE0003A25640008000020202D2D4E4F20666904
:101BF0006E6765722D2D00009C812142008021427C
:101C00000D0A25730000000010B586B004460121BE
:101C100044F20400FFF7A0F84FF40070ADF8140090
:101C200003208DF8160018208DF8170005A91C4810
:101C3000FEF780FC4FF48060ADF8140004208DF8AE
:101C4000170005A91648FEF775FC25208DF8000041
:101C500002208DF801008DF8020001208DF80300AC
:101C60006846FEF785FD01940020ADF80800ADF848
:101C70000A00ADF80C00ADF810000C20ADF80E0015
:101C800001A90848FFF7DEFB012240F22551054873
:101C9000FFF7B2FB01210348FFF72AFB06B010BD96
:101CA000000801400038014010B586B0044601210B
:101CB0000420FFF751F801214804FFF72DF82848C8
:101CC000FFF722FB0420ADF8100003208DF812006E
:101CD00018208DF8130004A92248FEF72BFC0820D9
:101CE000ADF8100048208DF8130004A91E48FEF737
:101CF00021FC00940020ADF80400ADF80600ADF81A
:101D00000800ADF80C000C20ADF80A006946144834
:101D1000FFF798FB01211248FFF7EAFA012240F28F
:101D200025510F48FFF768FB26208DF8140001208D
:101D30008DF815008DF816008DF8170005A8FEF730
:101D400017FD41F61F416320FFF7A8F9002007495E
:101D5000088000210648FFF7D4F906B010BD000046
:101D60000044004000080140000C01402400002015
:101D7000000800400000000000000000002F0000EC
:101D800000000700070000147F147F1400242A7F3E
:101D90002A120062640813230036495522500000BD
:101DA0000503000000001C224100000041221C002D
:101DB0000014083E08140008083E0808000000A0AF
:101DC00060000008080808080000606000000020AB
:101DD00010080402003E5149453E0000427F400089
:101DE000004261514946002141454B31001814120F
:101DF0007F10002745454539003C4A4949300001DC
:101E00007109050300364949493600064949291E2A
:101E1000000036360000000056360000000814228C
:101E2000410000141414141400004122140800028C
:101E30000151090600324959513E007C1211127CB1
:101E4000007F49494936003E41414122007F4141DE
:101E5000221C007F49494941007F09090901003ED0
:101E60004149497A007F0808087F0000417F41000E
:101E7000002040413F01007F08142241007F404084
:101E80004040007F020C027F007F0408107F003E6C
:101E90004141413E007F09090906003E4151215E52
:101EA000007F091929460046494949310001017F4F
:101EB0000101003F4040403F001F2040201F003FE5
:101EC0004038403F00631408146300070870080797
:101ED00000615149454300007F41410000552A55AA
:101EE0002A55000041417F00000402010204004025
:101EF0004040404000000102040000205454547847
:101F0000007F484444380038444444200038444466
:101F1000487F00385454541800087E090102001804
:101F2000A4A4A47C007F080404780000447D400041
:101F3000004080847D00007F102844000000417F25
:101F40004000007C04180478007C08040478003801
:101F50004444443800FC242424180018242418FC89
:101F6000007C0804040800485454542000043F44F2
:101F70004020003C4040207C001C2040201C003CB5
:101F80004030403C004428102844001CA0A0A07C05
:101F9000004464544C44141414141414000000003D
:101FA000000000000000000000000000000000F839
:101FB00000000000000000333000000000100C069C
:101FC000100C0600000000000000000040C0784037
:101FD000C0784000043F04043F040400007088FC03
:101FE00008300000001820FF211E0000F008F0005B
:101FF000E018000000211C031E211E0000F00888CC
:10200000700000001E2123241927211010160E0035
:10201000000000000000000000000000000000E0E0
:1020200018040200000000071820400000020418F5
:10203000E00000000040201807000000404080F051
:10204000804040000202010F01020200000000F087
:10205000000000000101011F01010100000000005B
:102060000000000080B070000000000000000000D0
:102070000000000000010101010101010000000059
:1020800000000000003030000000000000000000F0
:1020900080601804006018060100000000E01008CD
:1020A0000810E000000F102020100F00001010F8A2
:1020B000000000000020203F2020000000700808E1
:1020C0000888700000302824222130000030088861
:1020D000884830000018202020110E000000C02089
:1020E00010F8000000070424243F240000F80888AA
:1020F000880808000019212020110E0000E0108837
:1021000088180000000F112020110E000038080868
:10211000C83808000000003F000000000070880878
:1021200008887000001C222121221C0000E01008F9
:102130000810E0000000312222110F00000000C052
:10214000C0000000000000303000000000000080EF
:1021500000000000000080600000000000008040DF
:1021600020100800000102040810200040404040F8
:10217000404040000404040404040400000810204B
:102180004080000000201008040201000070480890
:102190000808F0000000003036010000C030C828F8
:1021A000E810E0000718272423140B000000C038B3
:1021B000E0000000203C23020227382008F888882D
:1021C00088700000203F202020110E00C030080839
:1021D00008083800071820202010080008F8080810
:1021E0000810E000203F202020100F0008F8888809
:1021F000E8081000203F20202320180008F88888D5
:10220000E8081000203F200003000000C03008084C
:102210000838000007182020221E020008F80800D5
:102220000008F808203F210101213F20000808F89C
:10223000080800000020203F2020000000000808BF
:10224000F8080800C08080807F00000008F888C07F
:1022500028180800203F20012638200008F8080030
:1022600000000000203F20202020300008F8F80067
:10227000F8F80800203F003F003F200008F830C079
:102280000008F808203F200007183F00E010080869
:102290000810E0000F10202020100F0008F8080898
:1022A0000808F000203F210101010000E0100808AB
:1022B0000810E0000F18242438504F0008F88888D0
:1022C00088887000203F2000030C302000708808B0
:1022D000080838000038202121221C00180808F8BE
:1022E000080818000000203F2000000008F808003F
:1022F0000008F808001F202020201F000878880010
:1023000000C83808000007380E010000F80800F87F
:102310000008F800033C0700073C03000818688029
:102320008068180820302C03032C30200838C8009F
:10233000C83808000000203F2000000010080808EE
:10234000C83808002038262120201800000000FE90
:10235000020202000000007F40404000000C30C03C
:1023600000000000000000010638C0000002020268
:10237000FE000000004040407F000000000004021A
:102380000202040000000000000000000000000045
:102390000000000080808080808080800002020435
:1023A000000000000000000000000000000080802D
:1023B000808000000019242222223F2008F800809B
:1023C00080000000003F112020110E00000000805E
:1023D00080800000000E11202020110000000080ED
:1023E0008088F800000E112020103F20000080801F
:1023F00080800000001F222222221300008080F033
:10240000888888180020203F20200000000080805D
:1024100080808000006B94949493600008F80080A2
:1024200080800000203F210000203F2000809898FD
:10243000000000000020203F20200000000000805D
:102440009898000000C08080807F000008F800009D
:1024500080808000203F24022D302000000808F8F2
:10246000000000000020203F2020000080808080AD
:1024700080808000203F20003F20003F808000803F
:1024800080800000203F210000203F20000080804D
:1024900080800000001F202020201F0080800080FE
:1024A0008000000080FFA12020110E0000000080AD
:1024B00080808000000E112020A0FF80808080009E
:1024C0008080800020203F212000010000008080CB
:1024D000808080000033242424241900008080E0C0
:1024E000808000000000001F20200000808000008D
:1024F00000808000001F202020103F20808080006E
:102500000080808000010E3008060100808000807D
:10251000008080800F300C030C300F0000808000A2
:10252000808080000020312E0E31200080808000CD
:102530000080808080818E7018060100008080807D
:10254000808080000021302C22213000000000001B
:10255000807C020200000000003F404000000000BC
:10256000FF00000000000000FF0000000002027CED
:10257000800000000040403F000000000006010114
:10258000020204040000000000000000AC25000866
:10259000000000206808000006020008DC2900088E
:1025A00068080020E80700005C1500087731323326
:1025B00034353684A24A04180A01020304060708C7
:1025C00009FF012117101010FF109010093F484813
:1025D0004444444270260444827F012BFF49011980
:1025E00020200F2030AC63100808F8090E08F80806
:1025F00008101022672212928040211608162140EE
:1026000080801720102CE724241808E22C20BF20FB
:1026100028E65E100F01017F2111804F20100F105E
:10262000204F80244042CC1E445454547F043344F1
:1026300040147F20103008FF15151555957F29800F
:10264000100C9020988888E98E8888A8981C0242EF
:102650008117400980844B28102847802A2401379D
:10266000FC22222223222A02013C42827F080B1FE5
:102670000202C01E80828282FE04490619515580E2
:1026800040300F191D415CF80106568C0202FE17FE
:10269000311B40808A1F04244484649C341EC80873
:1026A000082818B0180E080601824C2018060106EA
:1026B000182040E039E11CFC0402042B04FC36180D
:1026C0000D201F20404F4442407F424443F0480ABF
:1026D0008060F8074020180F0841299C112C100C2D
:1026E000035D1943113810886423A2A6AAA2BAA4D4
:1026F000A3A2262AA262993A4A01434BF8170484FE
:1027000084FC84842CFE9292032118082060201FF0
:10271000101040ED1A7F041960114CC05E52013355
:102720005EC0180E80808F404020100E10102020B8
:102730004FEF180F02E222223E8080FF80A0908897
:102740008680111D4382423E641008402106081015
:1027500020404A20015AFF081940193E130C031B60
:10276000030C1E1930138070280AFF102810EC2764
:102770002424E4E01780601807083010093F424223
:102780004A53484770151088C4331808201028246D
:10279000E324287319E012FF200B20110D41817FE3
:1027A000010509311F1060020CC004012AFC051943
:1027B000D03C047C036A4A3F701920180D8C20D04D
:1027C000485452D1129408D010201A7E4315125248
:1027D000927F1C5F807F70100F84444424140CFF90
:1027E0000C1424444484801A080128080949897972
:1027F0000D0B090B312907590131CA1001211C4069
:10280000201E085AFF0E114A02015AFF0819112A08
:1028100082013AFE06190F4A40015A7F084132E010
:1028200032FF1C2040806E1B040325299A310B1FA8
:10283000010E80380A4030EF246448487F48041273
:10284000401601017F21112BFF490129551C4042EF
:10285000CCE52B9E92011A9E60211D7F209484F36B
:102860001A0FF103138484C3583839401E4454545A
:10287000547F042A44B0147F20102FFF15151555DE
:1028800095A51D101014D41A2FFC525252D3129039
:1028900018084050575555557F041B5750E02A40A3
:1028A000412A900146FF10111610200D3F1028609C
:1028B0003F1010010E3040F0100A03050911FF11FE
:1028C0008905C312E012F072F8073D4428FF11AAEF
:1028D00044700B830138448292927401831E7C44BD
:1028E000C7017D01990562FF9A0102818A010B01EE
:1028F0003669419949FA0101A12A4001212A6D0155
:10290000212A6001791501642ADB010915072ADAF9
:1029100001212AD801212AC0010915072A800101B5
:10292000352A06010918071CE66620076A86157A0B
:10293000861C2A8601180A80808686068686C0C084
:102940000C0E1C0606D030764D2907013113601C91
:1029500012FE1301021009C41820029E63B20E1D5C
:10296000FF8181FFF24440300F12FF180923EAAAC9
:10297000BFAAEA033F0B012DBC808080080115240B
:102980000E0C082A01013149041D81808081021941
:1029900001B91706110101090C0E0A14C0012178B2
:1029A000081E21404050215E08012A4DFFFFC1C191
:1029B0000409232D481580FCF3EFF3FC80FF80EE23
:1029C000EEEEF5FBFF9CBEB6B6883A2D010203047D
:0C29D00004180806070809020406E9C103
:0400000508000101ED
:00000001FF
